:100000000C9418020C945F020C945F020C945F0233
:100010000C945F020C945F020C945F020C945F02DC
:100020000C945F020C945F020C94E91E0C94BB1FAD
:100030000C9451150C945F020C945F020C945F02B7
:100040000C945F020C945F020C945F020C945F02AC
:100050000C945F020C94B9150C945F020C945F022F
:100060000C945F020C945F020C945F020C945F028C
:100070000C945F020C945F020C945F020C945F027C
:100080000C945F020C945F020C945F020C945F026C
:100090000C945F020C945F020C945F020C945F025C
:1000A0000C945F020C945F020C945F02A103A30303
:1000B000AE03A503A703A903AB03AD03B003B203CB
:1000C000B403BF03B603B803BA03BC03BE03C10342
:1000D000050B050B370B370B750B950B2A0D2A0DEE
:1000E000D70B2A0D840C840CF60CFF0C2A0D230D63
:1000F000910C910C910C910C910C910C910C910C18
:10010000910C910C910C910C910C910C910C910C07
:10011000A20CB00CB70CBE0CC80CB90DB90DCB0DB0
:10012000CB0DC20DCB0DCB0DCB0DB90DB90DC70D40
:10013000CB0DCB0DC70D28204F2041214F20412151
:100140009B20BE20412114212321290035002B00B2
:100150003900E100E00000001E0014000400E1008E
:10016000E3003A001F001A0016001D00E2003B00E9
:100170002000080007001B0000003C0021001500C3
:100180000900060000003D00220017000A001900C7
:1001900000003E0023001C000B0005002C003F0067
:1001A000240018000D0011000000400025000C0084
:1001B0000E00100000004100260012000F00360063
:1001C000000042002700130033003700E600430020
:1001D0002D002F0034003800015144002E00300063
:1001E0002800E100500045002A00310000005200C4
:1001F00051002A004C004B004E004D004F00005CA7
:1002000000000000000000000000000000000000EE
:1002100000000000000000000000000000000000DE
:1002200000000000000000000000000000000000CE
:1002300000000000000000000000000000000000BE
:100240000000AC0000000000000000000000AB0057
:1002500000000000000000000000A80000000000F6
:10026000000000000000A9000000000000000000E5
:100270000000AA0000000000000000000000AD0027
:1002800000000000000000000000AE0001000000BF
:10029000000000000000000000000000000000005E
:1002A000000000000000000000000000000000004E
:1002B000000004033000000012034F0072006100D0
:1002C0006E0067006500370035000000100346002F
:1002D0006F0078002D004C006100620000000403F4
:1002E000090409023B00020100A0FA090400000110
:1002F00003010100092111010001224000070581CD
:100300000308000A0904010001030000000921118B
:1003100001000122C0000705820320000A1201101B
:100320000100000008EBFE6060010001020301050E
:10033000010902A10185020901A10005091901298C
:10034000051500250195057501810295017503814B
:10035000010501093009311581257F950275088154
:100360000609381581257F950175088106050C0A57
:1003700038021581257F950175088106C0C00501E9
:100380000980A10185031601002603001A81002AB5
:100390008300751095018100C0050C0901A101853C
:1003A00004160100269C021A01002A9C0275109571
:1003B000018100C005010906A1018505050719E0B5
:1003C00029E7150025019508750181020508190125
:1003D00029059505750191029501750391010507A0
:1003E000190029EF1500250195F075018102C0055E
:1003F000010906A101050719E029E7150025019566
:100400000875018102950175088101050819012906
:10041000059505750191029501750391010507196F
:100420000029FF150026FF00950675088100C00011
:1004300011241FBECFEFDAE0DEBFCDBF04B603FE4E
:1004400027C080914D0290914E02A0914F02B09131
:1004500050028730904BA740B04BD1F410924D0220
:1004600010924E0210924F021092500214BE84B7A6
:10047000877F84BF0FB6F894A8958091600088614B
:1004800080936000109260000FBEE0E0F8E30995F1
:1004900011E0A0E0B1E0E6E6F4E402C005900D92C0
:1004A000A832B107D9F722E0A8E2B1E001C01D925D
:1004B000AD34B207E1F70E940D1C0C9431220C946C
:1004C000000081E0089581E008950C9463020C948B
:1004D0000E07CF92DF92EF92FF92843030F48111B9
:1004E00005C0909180009F7704C083E090918000C8
:1004F000906890938000282F30E0AFEFBFEF0E940C
:10050000D52123E030E040E050E00E94AD212C37BF
:1005100084E138074105510530F4C90169E070E014
:100520000E94852129C0DA01C9018A50974DAF4F39
:10053000BF4F6627782F892F9A2F25EF38E241E0A9
:1005400050E00E94AD2169017A01CA01B9010E94FF
:1005500075219B01AC01C701B6010E947521BB2723
:10056000A92F982F872F009721E0A207B10511F03E
:10057000BC0102C06FEF7FEF709389006093880029
:10058000FF90EF90DF90CF900895259A2D9882E804
:100590008093800089E1809381008FEF9FEF90939B
:1005A0008700809386000C9491190E94E8138111B2
:1005B00002C00E9469140E94C5020C940B070895A2
:1005C0000C94DF020C94E00208950E94A70D0E9493
:1005D000E4022FEF84E39CE0215080409040E1F75B
:1005E00000C000000C94DF15FF920F931F93CF9370
:1005F000DF938C01FC01C081D18180916601811162
:1006000013C08281882349F0CE010E94DB12F82EAC
:10061000682FCE010E947E1204C0CE010E94AE124D
:10062000F82EBE018F2D04C0CE010E94DB12BE0148
:100630000E947504EC01B8010E946502882309F448
:1006400049C1C63DFCE5DF0709F4ABC0B0F4C531D4
:10065000ECE5DE0768F4C230FCE5DF0708F04FC0C8
:10066000C1158CE5D80701F1C130DC4529F125C160
:10067000C631DC4509F4FAC020C1CB3D8CE5D80772
:1006800071F150F4C73DFCE5DF0709F4ADC0C83D8A
:10069000DC4509F4D0C011C1CC3DECE5DE0731F1F9
:1006A000CD3DDC45A1F009C1F8018281882309F420
:1006B00011C10E94E5020EC1F8018281882309F46C
:1006C00009C18091080281608093080203C1F8018A
:1006D0008281882309F4FEC00E946914FBC0F801DE
:1006E0008281882309F4F6C080E006C0F801828187
:1006F000882309F4EFC082E00E94AC1CEBC0F80133
:100700008281882309F4DEC00E94E813811102C0AF
:100710000E9469140E94051490E090933E02809319
:100720003D02FE01E350FC45E231F10530F4EA5AA6
:10073000FF4F80913D020C94CF2180913D0281605A
:1007400027C0826025C0846023C0806121C0806290
:100750001FC080641DC080681BC08460886018C092
:100760008E7F16C08D7F14C08B7F12C08F7E10C00D
:100770008F7D0EC08F7B0CC08F770AC08B7F877FE9
:1007800007C087FB222720F991E0922790FB87F989
:1007900080933D0280913D020E9409140E94A70DA2
:1007A00099C0F8018281882351F010922D010E9496
:1007B000831590932A018093290182E022C08091C1
:1007C0002D0181110FC08091290190912A010E9471
:1007D0008F15883C910530F486E20E945B0986E221
:1007E0000E94590A82E024C0F8018281882361F0C6
:1007F00010922E010E94831590932C0180932B015F
:1008000080E20E94C10A66C080912E0181110FC052
:1008100080912B0190912C010E948F15883C9105AD
:1008200030F487E20E945B0987E20E94590A80E265
:100830000E94C80A4FC0F80182818111D9CF8091EE
:100840002E018111F4CF80912B0190912C010E94F7
:100850008F15883C910558F780E20E94C80A88E20B
:100860000E945B0988E20E94590A34C00E94AC13BE
:10087000282FF801828140910001509101018823C5
:1008800079F02A7A91E009F490E09093280191118F
:1008900002C069E201C065E3CA010E94D0140AC027
:1008A00080912801811102C069E201C065E3CA019B
:1008B0000E94DB140E9479130DC081E080932D010A
:1008C00080932E01C801DF91CF911F910F91FF906E
:1008D0000C94610280E0DF91CF911F910F91FF9006
:1008E000089580E090E00895089596E0799FF001E2
:1008F00011249AE5899FE00DF11D1124E60FF11DE9
:10090000EE0FFF1FE65BFE4F859194910895880FCF
:10091000991FFC01EE54FD4F859194910895CF935A
:10092000DF930E9475040E946A06EC01811521E59F
:10093000920708F042C0811530E5930708F01EC108
:10094000883E910500F5803E910508F0BFC1883AC8
:10095000910570F4853A910508F09DC081309105AC
:1009600009F4B4C108F46BC1049708F0AFC167C1C2
:100970008D3B910508F49AC0803C910508F45FC155
:10098000805C9109EBC0811540E3940780F48115E8
:1009900050E2950708F0E1C0803F910508F44FC18F
:1009A0008F3F910511F008F091C1D0658FC181157D
:1009B00060E4960708F0DFC0D5C0C11589E5D80707
:1009C00040F5C11528E5D20708F025C1C11534E569
:1009D000D30778F4C11543E5D40708F001C1C11568
:1009E00052E5D50708F0E6C0DC2FCC27C16FD06AEE
:1009F0006DC1C11565E5D60708F408C1C11586E5C6
:100A0000D80708F01CC1CF71DD27DC2FCC27D062BE
:100A10005DC1CD3B2CE5D20709F408C1D8F4CB3B2E
:100A20004CE5D40709F4FCC008F0FDC0C1156AE527
:100A3000D60708F004C18C2F8F70806E90E0906A0A
:100A400024E0D695C7952A95E1F7CF709C013C2B01
:100A5000E9013CC1C03C8CE5D80709F4EDC060F465
:100A6000CE3B3CE5D30709F4E4C0CF3BDC4509F0BD
:100A7000E6C0C0E0D2ED2AC1CE0190568115904269
:100A800008F0DDC08D2F8F710E94E706DD27D06250
:100A90008F71D82B1BC1853A910509F4D3C0863AD2
:100AA000910509F0D2C0C2E8D0E410C1883A91059E
:100AB00009F4CEC0893A910509F4CDC08A3A91056E
:100AC00009F4CCC08B3A910509F4CBC08C3A91055E
:100AD00009F4CAC08B3B910509F4C9C08C3B910550
:100AE00009F4C8C08D3A910509F4C7C0803B91054F
:100AF00009F4C6C08E3A910509F4C5C08F3A910534
:100B000009F4C4C0813B910509F4C3C0823B91053F
:100B100009F4C2C0833B910509F4C1C0843B91052F
:100B200009F4C0C0853B910509F4BFC0863B91051F
:100B300009F4BEC0873B910509F4BDC0883B91050F
:100B400009F4BCC0893B910509F4BBC08A3B9105FF
:100B500009F4BAC0C0E0D4E4B9C09F700E94870411
:100B6000EC01B4C09927D3FF03C0EC01D86CAEC030
:100B7000EC01D06CABC0DF70D06AA8C0282F237006
:100B800081E090E002C0880F991F2A95E2F79C68E7
:100B90009E0174E0369527957A95E1F72370922BA4
:100BA000CF70C695C69560E2C69FE0011124C82BA0
:100BB000D92B8CC02C2F2695269580E2289F90015A
:100BC0001124C370DD2781E090E0AC0102C0440F26
:100BD000551FCA95E2F7EA01C22BD32BDC6876C019
:100BE0002C2F2695269580E2289F90011124C37012
:100BF000DD2781E090E0AC0102C0440F551FCA958B
:100C0000E2F7EA01C22BD32BDA6860C0DC2FCC27D5
:100C1000C46FD06A5BC0DC2FCC27C06FD06A56C0CF
:100C2000C0E0D4ED53C0C0E0D5ED50C0C0E0D1ED80
:100C30004DC0C0E0D0ED4AC0C0E0D3ED47C0C0E039
:100C4000D0E044C0C1E8D0E441C0C3E8D0E43EC035
:100C5000C2EED4E43BC0C9EED4E438C0CAEED4E45A
:100C600035C0C5EBD4E432C0C6EBD4E42FC0C3EB2F
:100C7000D4E42CC0C4EBD4E429C0C7EBD4E426C030
:100C8000CCECD4E423C0CDECD4E420C0C3E8D5E45C
:100C90001DC0CAE8D5E41AC0C2E9D5E417C0C4E94A
:100CA000D5E414C0C1E2D6E411C0C3E2D6E40EC05C
:100CB000C4E2D6E40BC0C5E2D6E408C0C6E2D6E47E
:100CC00005C0C7E2D6E402C0CAE2D6E4CE01DF9195
:100CD000CF9108958238910549F1B0F4813391059F
:100CE00009F458C048F48932910509F44EC08A329B
:100CF000910509F454C008958533910509F440C065
:100D00008933910599F00895833E910529F138F4CE
:100D1000803E910591F0823E9105A1F00895863EB6
:100D20009105F9F0873E910531F1089520913D023A
:100D300020FD3AC021FD38C0089580913D0280FD1C
:100D400035C032C080913D0282FF32C080913D02A9
:100D500084FD30C083EE39C080913D0282FD28C001
:100D6000F5CF80913D0283FF27C080913D0284FD35
:100D700021C087EE2AC080913D0283FD1DC0F5CFC2
:100D800080913D0285FD1AC01BC080913D0285FD0A
:100D900017C014C080913D0286FD14C015C080911B
:100DA0003D0286FD11C00EC080EE0FC089E30DC06C
:100DB00082EE0BC080E009C086EE07C089E205C064
:100DC00085E303C08AE201C081E390E00895909139
:100DD0003D0292FF0DC0282F2871283019F4877F1B
:100DE000846006C0282F2471243011F48B7F886022
:100DF00093FF0DC0282F2871283119F4877E846154
:100E000006C0282F2471243111F48B7E886194FD53
:100E1000877E089508950C940A0708950C940D0791
:100E2000E9E1F1E041E050E02FE02E0F9191A92F90
:100E3000A295AF70B0E091963C9191979F70BA01E6
:100E400002C0660F771F9A95E2F7CB018095832346
:100E500091968C932E13EACFA3E1B1E041E050E0EC
:100E600026E02A0F8D91E82FE295EF70F0E031A196
:100E70008F70BA0102C0660F771F8A95E2F7CB0127
:100E8000962F9095932391A392A1892B82A32A1345
:100E9000E9CFAFE2B1E0EEE3F1E08FE08E0F119227
:100EA0001D928E13FCCF0C94D5022F923F925F922D
:100EB0006F927F928F929F92AF92BF92CF92DF926A
:100EC000EF92FF920F931F93CF93DF9329E1C22EEE
:100ED00021E0D22E0FE211E0E801EE24E394F12CA0
:100EE000AA24A3944FE0B42EB00EBE0188801882CD
:100EF000D6018D916D01E82FE295EF70F0E021A110
:100F00008F70A70102C0440F551F8A95E2F7CA01EE
:100F1000242B21A322A1942E9094292122A350EACC
:100F20005A95F1F793E1292E91E0392E20E030E037
:100F3000D1017D901D01472D42954F7050E0DA019F
:100F400090965C906880572D5F70D70102C0AA0F01
:100F5000BB1F5A95E2F7AD01452139F44E2D022E03
:100F600001C0440F0A94EAF701C040E046294883D3
:100F70002F5F3F4F26303105D9F691A1992291A2DA
:100F800092A1892B82A32196FB018081881641F0D2
:100F9000A0924D010E94831590934F0180934E01C2
:100FA000BC12A3CF80914D01882391F080914E0116
:100FB00090914F010E948F15069750F0EEE3F1E0FB
:100FC000D8018D918D018193BA12FACF10924D0103
:100FD0000E94670281E0DF91CF911F910F91FF90F6
:100FE000EF90DF90CF90BF90AF909F908F907F90C9
:100FF0006F905F903F902F900895E82FF0E0E25CB3
:10100000FE4F808108950895909355018093540177
:101010000895E0915401F0915501309721F001902D
:10102000F081E02D099480E00895E0915401F09161
:101030005501309799F020911201222359F0209107
:101040003D0227FF07C0DC012C9111962C931197CC
:1010500025E02C930280F381E02D09940895E0911E
:101060005401F0915501309739F022E0DC012C93C6
:101070000480F581E02D099408952091520130916A
:1010800053018217930771F090935301809352019B
:10109000E0915401F0915501309721F00680F781DD
:1010A000E02D09940895209150013091510182174B
:1010B000930771F09093510180935001E091540196
:1010C000F0915501309721F00084F185E02D0994CD
:1010D000089585B7806885BF85B7806885BF089506
:1010E00008950E9469080C94700881E008950E9498
:1010F0007A150E9410070E9447160C949119CF92FE
:10110000DF92EF92FF920F931F93CF93DF93CDB7B0
:10111000DEB72B970FB6F894DEBF0FBECDBF0E948F
:1011200055070E947508811111C08FEF89838A834A
:101130001B820E9483158160782F9D838C83498157
:101140005A816B818D810E94270956C087E5C82E80
:1011500081E0D82E00E010E0E02E802F0E94FD07F5
:10116000F60141916F01F42EF82631F40F5F1F4F05
:101170000F30110589F7D9CF9091080291FF04C073
:101180008B870E9403088B8520E030E04F2D50E0D4
:10119000922FBA01022E02C0759567950A94E2F764
:1011A00060FF24C02E83EF8221E030E0690102C09D
:1011B000CC0CDD1C9A95E2F790E08C219D21892BC7
:1011C00009F420E028870E9483158160782F9A8790
:1011D00089874E815F8168858A850E942709F80189
:1011E000E95AFE4F8081C826C08206C02F5F3F4F5C
:1011F0002630310569F6BACF0E94EA1810915601DF
:101200000E9409081817A1F00E940908809356014E
:101210002B960FB6F894DEBF0FBECDBFDF91CF91F6
:101220001F910F91FF90EF90DF90CF900C94E2020E
:101230002B960FB6F894DEBF0FBECDBFDF91CF91D6
:101240001F910F91FF90EF90DF90CF900895CF9373
:10125000DF93CDB7DEB72B970FB6F894DEBF0FBE86
:10126000CDBF4F83588769877A878B87DE011196B8
:1012700086E0FD0111928A95E9F785E0FE01379637
:1012800001900D928A95E1F749815A816B817C81A9
:101290008D819E810E944E102B960FB6F894DEBF72
:1012A0000FBECDBFDF91CF910895FC018081918168
:1012B0000E941A130895882309F4FAC08238C1F4F1
:1012C0000E94090881FDF4C069E3809100019091BA
:1012D00001010E94D0140E9479132FEF81EE94E057
:1012E000215080409040E1F700C0000069E319C040
:1012F0008338F9F40E94090880FDDAC063E5809123
:101300000001909101010E94D0140E9479132FEFE7
:1013100081EE94E0215080409040E1F700C0000051
:1013200063E580910001909101010E94DB140C940F
:1013300079138438C1F40E94090882FDB9C067E4BA
:1013400080910001909101010E94D0140E947913B4
:101350002FEF81EE94E0215080409040E1F700C0F3
:10136000000067E4DECF9CEF980F913A40F4682FBD
:1013700080910001909101010E94D014D8CF90E299
:10138000980F983050F4877091E001C0990F8A95BA
:10139000EAF7892F0E94AF13CACF9BE5980F9330CD
:1013A00070F4853A29F0863A31F083E890E005C080
:1013B00081E890E002C082E890E00C943D0898E556
:1013C000980F953108F06EC0883A61F1893A69F159
:1013D0008A3A71F18B3A79F18C3A81F18B3B89F140
:1013E0008C3B91F18D3A99F1803BA1F18E3AA9F1B4
:1013F0008F3AB1F1813BB9F1823BC1F1833BC9F135
:10140000843BD1F1853BD9F1863BE1F1873BE9F1A2
:10141000883BF1F1893BF9F18A3B09F43FC080E058
:1014200090E03EC082EE90E03BC089EE90E038C094
:101430008AEE90E035C085EB90E032C086EB90E01C
:101440002FC083EB90E02CC084EB90E029C087EBA9
:1014500090E026C08CEC90E023C08DEC90E020C0A2
:1014600083E891E01DC08AE891E01AC082E991E02A
:1014700017C084E991E014C081E292E011C083E2D8
:1014800092E00EC084E292E00BC085E292E008C0D8
:1014900086E292E005C087E292E002C08AE292E032
:1014A0000C945308803F20F00E94F2170C94DF1830
:1014B0000895882309F464C0823879F40E940908E9
:1014C00081FF5EC069E380910001909101010E945B
:1014D000D0140E94791369E310C08338B1F40E94DC
:1014E000090880FF4DC063E58091000190910101E2
:1014F0000E94D0140E94791363E5809100019091BD
:1015000001010E94DB140C947913843879F40E9451
:10151000090882FF35C067E48091000190910101C4
:101520000E94D0140E94791367E4E7CF9CEF980FD4
:10153000913A10F4682FE1CF90E2980F983050F470
:10154000877091E001C0990F8A95EAF7892F0E9470
:10155000B513D9CF9BE5980F933020F480E090E04D
:101560000C943D0898E5980F953120F480E090E0C8
:101570000C945308803F20F00E945A180C94DF18F6
:101580000895882321F00E94AF130C9479130895D5
:10159000882321F00E94B5130C94791308954F927B
:1015A0005F926F927F92BF92CF92DF92EF92FF9203
:1015B0000F931F93CF93DF937C01D62FC72FFC018E
:1015C000058102950F70128111110E94CC130E94A7
:1015D0007213882379F0112369F080E28D0F88302F
:1015E00048F082E00E945B130E94721391E0B82ED3
:1015F000B92601C0B12CCC2EC2948FE0C822D12CC8
:10160000F601E859FF4F0C94CF218C2F807FCF70CB
:10161000882311F0C295C07F112399F0CC2309F4DF
:10162000D0C180E28D0F883010F0D11104C08C2F12
:101630000E94AF1303C08C2F0E94BF130E94791326
:10164000C0C18D2F0E94590ACC2309F403C280E245
:101650008D0F883010F0D11104C08C2F0E94B5136B
:1016600003C08C2F0E94C5130E947913F3C18C2FE5
:10167000807FCF70803211F0C295C07FDD2319F0DA
:10168000D130C9F022C0112371F0002341F00130A4
:1016900031F40E94E5138C2B0E94DF13DBC10E9402
:1016A000E5138C2B46C1002319F0013009F4D2C197
:1016B0000E94E21318C0112321F0063008F0CAC1BD
:1016C0000EC0053008F0C6C10EC0112351F0002332
:1016D00031F0F701858180FF74C18F7085838C2F75
:1016E00028C101117FC18C2F2AC18C2F8695869528
:1016F000837090E0009719F0019761F0ABC111235E
:1017000021F08D2F9C2F937002C080E090E00E940A
:101710003D08B0C1112321F08D2F9C2F937002C082
:1017200080E090E00E945308A5C11123F9F0D53F55
:1017300051F0D63F71F0D43FA9F4809137029091D7
:10174000380281600BC0809137029091380282602C
:1017500005C08091370290913802846090933802DE
:10176000809337028D2F0E94F2171EC0D53F51F093
:10177000D63F71F0D43FA9F480913702909138029E
:101780008E7F0BC080913702909138028D7F05C00B
:1017900080913702909138028B7F9093380280932A
:1017A00037028D2F0E945A180E94DF1863C18C2FB8
:1017B000837009F050C0111159C18D2F8295869503
:1017C0008770880F880F9D2F9F70492E512C612C98
:1017D000712C082E04C0440C551C661C771C0A94FE
:1017E000D2F7D4FF14C00FE010E020E030E0B901E0
:1017F000A80104C0440F551F661F771F8A95D2F7B2
:10180000CB01BA01609570958095909503C060E01A
:1018100070E0CB01C695C695C370D0E0C230D1054B
:1018200061F0C330D10581F0642975298629972993
:10183000219771F00E94931119C164297529862995
:1018400097290E94A51112C10E949311C301B201F0
:101850000E9481110BC1112319F08C2F817001C0DE
:101860008695882309F402C18D2F8295869587700D
:10187000880F880F9D2F9F70492E512C612C712C41
:10188000082E04C0440C551C661C771C0A94D2F721
:10189000D4FF14C00FE010E020E030E0B901A8014F
:1018A00004C0440F551F661F771F8A95D2F7CB01DE
:1018B000BA01609570958095909503C060E070E0E6
:1018C000CB01C695C695C3704C2F50E042305105F0
:1018D00069F04330510589F06429752986299729D3
:1018E0004130510571F00E945912C0C06429752918
:1018F000862997290E946B12B9C00E945912C30110
:10190000B2010E944712B2C08D2F90E0FC01E05E50
:10191000F109E531F10508F050C0E858FF4F0C948B
:10192000CF21DF708C2F8F71112331F00E94E011D5
:101930008D2F0E94C10A8EC00E9401128D2F0E941D
:10194000C80A88C0112341F0053008F083C08C2FED
:101950008F710E9426127EC0063008F07BC0F7CF40
:10196000112339F08C2F8F710E94E01173C0112365
:10197000C9F38C2F8F710E9401126CC0112329F0C2
:101980008C2F8F710E94CB1165C00E94C61162C05E
:10199000112349F0CF718C2F0E94E01163E08C2F4E
:1019A0000E94521357C081E00E945B13023008F47A
:1019B00051C082E00E945B134DC0112331F000231F
:1019C00089F28D2F0E945B0945C0002391F2D93323
:1019D00049F45FEF67EE73E0515060407040E1F70B
:1019E00000C000008D2F0E94590A34C04C2F4F7048
:1019F0006D2FC7010E9471040E94F2103BC01111AB
:101A000039C0CF70D0E0C230D10599F03CF42097B6
:101A100069F02197F9F40E94CB192CC0C430D1058C
:101A200071F054F02597B1F480E00AC00E94AE191D
:101A300021C00E940A1A1EC00E94111A1BC083E016
:101A40000E94341A17C04C2F4F706D2FC7010E948F
:101A5000740410C088E0C816D10441F05CF0EAE0DC
:101A6000CE1AD108F2E0CF16D10420F40E94090862
:101A70000E94E202BB20F1F00E944E1380FD1AC0CA
:101A8000F70112820E9448130E94E011C7010E94D0
:101A9000680D0E944813DF91CF911F910F91FF9025
:101AA000EF90DF90CF90BF907F906F905F904F90BE
:101AB0000C940112DF91CF911F910F91FF90EF9045
:101AC000DF90CF90BF907F906F905F904F90089580
:101AD0000F931F93CF93DF93EC01888199812B8122
:101AE0003C81232BB9F09F3F11F48F3F99F0CE0139
:101AF0000E94F402882371F0688179818A810E94B2
:101B000025138C010E947D120E947E11B801CE0126
:101B10000E94CF0ADF91CF911F910F9108950E94EB
:101B2000CC130E94DC1380910001909101010E946E
:101B3000E6140E9479130E9485190E94DF1880E044
:101B400090E00E943D0880E090E00C9453080E94D1
:101B5000BC130C948F0D0E941A13E92FE295EF70BD
:101B6000F0E03297EE30F105B0F4E357FF4F0C94FC
:101B7000CF21803F91F018F4803E68F40EC0843F7E
:101B800051F40BC0803E48F0813F29F406C093FB1E
:101B9000882780F9089580E0089581E00895CF9323
:101BA000DF9300D000D01F92CDB7DEB70F900F901B
:101BB0000F900F900F90DF91CF910895CF93DF9307
:101BC00000D000D000D0CDB7DEB726960FB6F8947F
:101BD000DEBF0FBECDBFDF91CF9108951F93CF938E
:101BE000DF93C091670116E080916801C81799F0F2
:101BF000D0E01C9FF0011D9FF00D1124E759FE4F0E
:101C00004081518162817381848195810E94DE0DC2
:101C10002196C770E9CFDF91CF911F910895409130
:101C2000990150919A0160919B0170919C01809162
:101C30009D0190919E010C94DE0D80919E018295F4
:101C40008F7009F054C080919B01882309F44FC024
:101C500080916701A09168016091990170919A014A
:101C600040919C0150919D01B6E08A1709F43FC054
:101C700090E041155105C1F17F3F11F46F3FA1F193
:101C8000B89FF001B99FF00D1124E759FE4F218153
:101C900072132AC02081621327C02281211124C01F
:101CA000238134812417350710F421503109241B76
:101CB000350B283C3105C0F420919E012F70206126
:101CC00020939E0126E0289FF001299FF00D11240A
:101CD000E259FE4F80818F708061808389E991E0B5
:101CE0000E94680D0C94EE0D01968770BECF08958A
:101CF000CF92DF92EF92FF920F931F93CF93DF93D8
:101D0000CDB7DEB762970FB6F894DEBF0FBECDBF7A
:101D10008C0185E0F801DE011D9601900D928A95F7
:101D2000E1F7D8014C9111965C91119712966C9144
:101D300012971396CD90DC90149730919901709181
:101D40009A0180919C0190919D01009709F46BC1CB
:101D50007F3F19F43F3F09F466C1E0909B01EE20FC
:101D600009F4C0C020919E01C816D90628F0F601DA
:101D7000E81BF90BCF0104C0809590958C0D9D1D3B
:101D8000FF24F394883C910578F0F12C207F09F032
:101D9000C6C07C2DD98AC88A89890E94CF0D89E95D
:101DA00091E00E94680DB1C0822F807F09F046C08B
:101DB000751314C0341312C0611110C02F7020614C
:101DC00020939E010E940F0E89E991E00E94680D08
:101DD00080919E01D80115968C932EC0CD2819F1C3
:101DE0005F3F11F44F3FF9F0F62E61111CC0809156
:101DF00067012091680136E0821709F45AC090E02B
:101E0000389FF001399FF00D1124E759FE4F718181
:101E1000571306C07081471303C07281711103C04C
:101E200001968770E9CFF62E662309F427C18091C9
:101E30009E01816080939E01F12C20C1751308C022
:101E4000341306C0611104C080919E01D801C3C043
:101E50004D875E878D859E856A8B0E94AB0D6A8952
:101E60008823E1F16623D1F120919E01822F829592
:101E70008F7090E0029774F08091990190919A018F
:101E800098878F831986DB86CA862C87CE010796B2
:101E90000E94680D86E0F801A9E9B1E001900D9279
:101EA0008A95E1F70E941D0E0E940F0EFF24F39405
:101EB000E5C04D875E878D859E850E941A13292F68
:101EC00022952F7030E0223031050CF0CBC09F708E
:101ED00009F0C5C0805E883008F4D0C0C8010E94F7
:101EE000680DE4CFC816D90608F453C0F601E81B04
:101EF000F90BCF01883C910508F450C0F12C7C2DE2
:101F0000D98AC88A89890E94CF0DE9E9F1E086E083
:101F1000DF011D928A95E9F70E940F0EAFC075137D
:101F200014C0341312C0611110C080919E01F801D9
:101F30008583C8010E94680D86E0E9E9F1E0DF01D0
:101F40001D928A95E9F7FE2C99C04D875E878D8595
:101F50009E856A8B0E94AB0D6A89882309F4BECFE7
:101F6000662309F4BBCF20919E01822F82958F704A
:101F700090E002970CF48ECF8091990190919A0194
:101F80009A8389831B82DD82CC822E83CE010196C7
:101F90007FCF809590958C0D9D1DACCFF62E66233E
:101FA00009F49CCF75132EC034132CC020919E01D0
:101FB00020FD1FC0822F82958F70D9F0D801159611
:101FC0002C9315978F3049F08F5F982F9295907FC3
:101FD000822F8F70892B15968C93C8010E94680DF3
:101FE00086E0F801A9E9B1E001900D928A95E1F748
:101FF00093CF86E0F801A9E9B1E001900D928A95AE
:10200000E1F73CC04D875E878D859E850E94AB0DB4
:10201000811140CF80919E01816080939E01C80113
:102020000E94680D2BC0662309F458CF4D875E8748
:102030008D859E850E94AB0DF82E882309F44ECF26
:1020400086E0F801A9E9B1E001900D928A95E1F7E7
:1020500089E991E00E9455090E941D0E5DCF811112
:1020600039CF0CC0243031050CF038CF9F7009F403
:1020700031CFF8019581907F09F02CCF8F2D62969A
:102080000FB6F894DEBF0FBECDBFDF91CF911F9189
:102090000F91FF90EF90DF90CF9008951F93CF9313
:1020A000DF93CDB7DEB72C970FB6F894DEBF0FBE27
:1020B000CDBF4F83588769877A878B879C87CE01EE
:1020C00007960E94780E882369F08F8198852A856B
:1020D0003B85232BF1F19F3F09F063C08F3F09F04F
:1020E00060C037C086E0FE013796DE011196019090
:1020F0000D928A95E1F76F817885EA85FB853097A7
:1021000041F17F3F11F46F3F21F12091680130E0F0
:10211000C9010196877099274091670150E08417A3
:10212000950709F447C069837A83FD83EC8396E0C1
:10213000929FD001939FB00D1124A759BE4FFE016D
:10214000319601900D929A95E1F7809368010E9473
:10215000EE0D16E080916701909168018917C1F139
:10216000189FC001112487599E4F0E94780E882322
:1021700079F1E09167011E9FF0011124E759FE4FAC
:102180004081518162817381848195810E94DE0D3D
:102190008091670190E0019687709927809367018D
:1021A000D9CF4F81588569857A858B859C850E941A
:1021B000DE0DCFCF0E94A70D10926801109267012B
:1021C000E9E9F1E086E0DF011D928A95E9F7C1CFE8
:1021D0002C960FB6F894DEBF0FBECDBFDF91CF9126
:1021E0001F910895EF92FF920F931F93CF93DF9368
:1021F0008C01892B09F46CC0F12CEE24E394E801E6
:102200002196F8018491843740F4843008F051C05D
:10221000813081F0823019F15BC0853709F444C008
:10222000A8F19CE7980F903708F052C08F770E9472
:10223000590A41C00E5F1F4FFE01C49180E28C0F0E
:10224000883048F4C7708E2D01C0880FCA95EAF710
:102250000E94CF1314C08C2F0E945B092DC00E5F0B
:102260001F4FFE01C49180E28C0F883058F4C77074
:102270008E2D01C0880FCA95EAF70E94D5130E94DF
:1022800079131AC08C2F0E94590A16C00E5F1F4F77
:10229000FE01C491CC2381F08FE99FE00197F1F713
:1022A00000C00000C150F6CF0E5F1F4FFE01F4903A
:1022B00003C00E945B098E018F2D882309F49FCFF4
:1022C000EFE9FFE03197F1F700C000008150F5CF52
:1022D000DF91CF911F910F91FF90EF900895089596
:1022E0000C946F110E9470116093DF017093E001F4
:1022F0008093E1019093E2010C948F0D08950C946A
:1023000072110F931F930091DF011091E001209152
:10231000E1013091E201602B712B822B932B1F91F5
:102320000F910C9472110F931F930091DF01109184
:10233000E0012091E1013091E201602371238223C9
:1023400093231F910F910C9472110F931F9300917F
:10235000DF011091E0012091E1013091E20160275D
:102360007127822793271F910F910C947211089562
:102370000C94B7110E94B8116093DB017093DC01DB
:102380008093DD019093DE010C948F0D60E070E08E
:10239000CB010C94BA110F931F9341E050E060E021
:1023A00070E08A019B0104C0000F111F221F331F20
:1023B0008A95D2F7C901B8011F910F910C94BA11F7
:1023C0000F931F9341E050E060E070E004C0440FC1
:1023D000551F661F771F8A95D2F78091DB01909178
:1023E000DC01A091DD01B091DE018A019B01082B87
:1023F000192B2A2B3B2BC901B8011F910F910C946B
:10240000BA110F931F9341E050E060E070E004C008
:10241000440F551F661F771F8A95D2F74095509538
:10242000609570958091DB019091DC01A091DD01B8
:10243000B091DE018A019B01082319232A233B2343
:10244000C901B8011F910F910C94BA110F931F93FA
:1024500041E050E060E070E004C0440F551F661F8B
:10246000771F8A95D2F78091DB019091DC01A091D2
:10247000DD01B091DE018A019B01082719272A2777
:102480003B27C901B8011F910F910C94BA110F930A
:102490001F930091DB011091DC012091DD0130914F
:1024A000DE01602B712B822B932B1F910F910C94CB
:1024B000BA110F931F930091DB011091DC01209161
:1024C000DD013091DE0160237123822393231F916C
:1024D0000F910C94BA110F931F930091DB0110918F
:1024E000DC012091DD013091DE0160277127822718
:1024F00093271F910F910C94BA110895292F220F41
:10250000920F990F890FA82FA695A695A69587706B
:1025100051E001C0550F8A95EAF785E0A89FD001E8
:10252000112420E030E070E0F901EA0FFB1FE156D2
:10253000FE4F4081CB01022E02C0969587950A94EA
:10254000E2F78170992781958427852384278083EA
:102550002F5F3F4F2530310539F70895292F220F7E
:10256000920F990F890F682F669566956695982F3B
:10257000977085E0689FB001112440E050E080E052
:10258000FA01E60FF71FE156FE4F208130E0092ED9
:1025900002C0369527950A94E2F721703327042E5E
:1025A00001C0220F0A94EAF7822B4F5F5F4F45303C
:1025B000510531F70895CF92DF92EF92FF920F937A
:1025C0001F93CF93DF938C01C090DF01D090E00187
:1025D000E090E101F090E2018091DB019091DC015B
:1025E000A091DD01B091DE01C82AD92AEA2AFB2A8E
:1025F000CFE1D0E0D701C6010C2E04C0B695A79557
:10260000979587950A94D2F780FF06C0B8018C2F62
:102610000E948F04019721F4219760F780E001C0A8
:102620008C2FDF91CF911F910F91FF90EF90DF9052
:10263000CF900895CF93DF93EC010E94DB12BE018F
:102640000E948F04DF91CF9108951F93CF93DF9362
:10265000EB0190916601992321F0CB010E941A139E
:1026600013C0882349F0CB010E94DB12182F682F7A
:10267000CE010E947E1204C0CB010E94AE12182F20
:10268000BE01812F0E948F04DF91CF911F91089589
:102690008091E30185958595859508958091E30165
:1026A0008770089598E0899F90011124262B20932C
:1026B000E3010C94E0112091E30180958223809343
:1026C000E301982F977069F430E0482F082E000C32
:1026D000550B2417350729F08595859585950C941C
:1026E000011208959091E301977081E009F480E070
:1026F0000895E0910001F09101018091070280832B
:10270000E0910001F0910101908180910602892BF6
:102710008083E0910001F091010190818091050298
:10272000892B80838091E401882381F0E09100016E
:10273000F09101019081892B80838091000190911B
:1027400001010E946B1481111092E401809100013B
:10275000909101010C9415088091070208959091C1
:102760000702892B809307020895809590910702B4
:10277000892380930702089510920702089590918B
:102780000602892B80930602089580959091060297
:10279000892380930602089510920602089590916D
:1027A0000502892B8093050208958095909105027A
:1027B000892380930502089510920502089580935D
:1027C000E40108951092E40108958091E4010895D0
:1027D00080E090E00E94F72121E08D3E9E4F09F0BD
:1027E00020E0822F089582E090E00C94EF21682F82
:1027F00082E090E00C94FD2183E090E00C94EF21C6
:10280000682F83E090E00C94FD2184E090E00C942C
:10281000EF21682F84E090E00C94FD2186E090E0A9
:102820000C94EF21682F86E090E00C94FD21AB0121
:10283000BC018FE090E00C940F22AB01BC0183E15E
:1028400090E00C940F2260E070E0CB010C941D141A
:1028500060E070E0CB010E9417140C9423146DEE1D
:102860007EEF80E090E00E941B2260E082E090E03A
:102870000E94FD2160E083E090E00E94FD21109223
:10288000DF011092E0011092E1011092E20160E09C
:1028900084E090E00E94FD2160E085E090E00E94ED
:1028A000FD2160E086E090E00E94FD216FEF87E06F
:1028B00090E00E94FD2140E050E0BA0188E090E005
:1028C0000E940F2260E08DE090E00E94FD210C94B8
:1028D00028140C942F14FC01329680911201882345
:1028E00031F080913D0287FF02C09EE101C096E079
:1028F00080E0915028F021912223D9F38F5FF9CF06
:1029000008959C01FC0132969FEF80E041914617AB
:1029100089F09F3F19F4411101C0982F8F5F8630D5
:10292000A9F79F3F39F0F901E90FF11D97FDFA95DD
:10293000628308950895FC0132960896208126133B
:1029400001C010823196E817F907C1F70895262FC4
:102950002695269526952E3168F4FC01E20FF11D8F
:10296000677021E030E001C0220F6A95EAF78281AA
:10297000282B22830895262F2695269526952E31DD
:1029800070F4FC01E20FF11D677021E030E001C03E
:10299000220F6A95EAF720958281282322830895E1
:1029A00020911201222329F020913D0227FD0C9451
:1029B000A7140C94811420911201222329F0209154
:1029C0003D0227FD0C94BB140C949B142091120122
:1029D000FC013296222331F080913D0287FF02C034
:1029E0008EE101C086E0DF011D928A95E9F7089526
:1029F00008950C94F8140E94F914809144028430D4
:102A000061F11092090220E488E190E00FB6F89499
:102A1000A895809360000FBE2093600080E00E9424
:102A2000690280E00E94E2020E94F91483B7817F6C
:102A3000846083BF83B7816083BF7894889583B7B0
:102A40008E7F83BF0FB6F894A8958091600088614F
:102A500080936000109260000FBE0895089508955D
:102A6000CF930E942E150E9455070E942F15C0E09B
:102A70008C2F0E94FD07811104C0CF5FCF30C1F7BA
:102A800001C081E0CF91089508950C9444150E94EF
:102A9000A70D0E9491190E9409080E94E2020C945D
:102AA00045151F920F920FB60F9211248F939F938B
:102AB000AF93BF9380910902811113C080913902B5
:102AC00090913A02A0913B02B0913C024196A11D27
:102AD000B11D8093390290933A02A0933B02B093C8
:102AE0003C02BF91AF919F918F910F900FBE0F90BD
:102AF0001F90189582E084BD93E095BD9AEF97BD35
:102B000080936E0008952FB7F894809139029091C8
:102B10003A02A0913B02B0913C022FBF0895CF92A0
:102B2000DF92EF92FF920F931F932FB7F89440918B
:102B3000390250913A0260913B0270913C022FBFE2
:102B40006A017B01EE24FF248C0120E030E0C016F6
:102B5000D106E206F30610F4415051099A01281BF0
:102B6000390BC9011F910F91FF90EF90DF90CF902B
:102B7000089578941F920F920FB60F9211248F939D
:102B80009F93AF93BF938091390290913A02A091A5
:102B90003B02B0913C020196A11DB11D8093390208
:102BA00090933A02A0933B02B0933C02BF91AF9145
:102BB0009F918F910F900FBE0F901F90189581E0FD
:102BC0008093E00080E28093D8001092C9008FE1EA
:102BD0009EE40197F1F700C0000087E090EBDC0174
:102BE00080934D0290934E02A0934F02B0935002F7
:102BF0009CE088E10FB6F894A895809360000FBE22
:102C000090936000FFCFCF92DF92EF92FF920F93ED
:102C10001F93CF93C0E0E82EF12C8C2F0E94FD076C
:102C200000E010E0C82ED12CC601002E02C0959500
:102C300087950A94E2F780FD06C00F5F1F4F0630AC
:102C4000110591F70AC0602F7C2F80E00E94750467
:102C5000E816F90691F781E004C0CF5FCF30E9F6BE
:102C600080E0CF911F910F91FF90EF90DF90CF9078
:102C70000895CF93C82F8CE20E940316882321F079
:102C80008C2FCF910C94031680E0CF910895CF93B1
:102C90000E94E813811102C00E946914C5E6C15068
:102CA00049F00E9455078FE39CE90197F1F700C0B6
:102CB0000000F5CF89E20E94391681110FC18AE226
:102CC0000E94391681110E94691485E00E9439160C
:102CD00081110E94DF150E94F3138093080287E0A0
:102CE0000E9439168823A9F18BE10E9439168823A6
:102CF00051F08091080281FB222720F991E0922770
:102D000090FB81F90EC08EE00E943916882361F095
:102D10008091080282FB222720F991E0922790FB04
:102D200082F98093080215C080E10E9439169091C3
:102D30000802882341F093FB222720F981E08227B3
:102D400080FB93F904C0892F809580FB90F99093C4
:102D50000802809108020E94F7130E94051490E077
:102D600090933E0280933D0280EE0E9439168823A4
:102D700041F080913D02982F909590FB80F98093CF
:102D80003D0289E30E943916882359F080913D0263
:102D900081FB222720F991E0922790FB81F9809313
:102DA0003D0282EE0E943916882359F080913D023F
:102DB00082FB222720F991E0922790FB82F98093F1
:102DC0003D0286EE0E943916882359F080913D021B
:102DD00083FB222720F991E0922790FB83F98093CF
:102DE0003D0283EE0E943916882359F080913D02FE
:102DF00084FB222720F991E0922790FB84F98093AD
:102E00003D0285E30E943916882359F080913D02E6
:102E100085FB222720F991E0922790FB85F980938A
:102E20003D0281E30E943916882359F080913D02CA
:102E300086FB222720F991E0922790FB86F9809368
:102E40003D0281E10E943916882359F080913D02AC
:102E500087FB222720F991E0922790FB87F9809346
:102E60003D0280913D020E94091487E20E943916BA
:102E7000C82F8EE10E9439168111C2608FE10E9435
:102E800039168111C46080E20E9439168111C86030
:102E900081E20E9439168111C06182E20E943916D6
:102EA0008111C06283E20E9439168111C06484E2FC
:102EB0000E943916882311F0C06802C0CC2329F083
:102EC0008C2F0E9400146C2F03C00E94FC13682FEB
:102ED00070E080E090E0CF910C947F11CF91089545
:102EE00080910C0280FF0BC06091050185E0689F16
:102EF000B001112475956795759567952BC081FF75
:102F000009C06091050185E0689FB00111247595A5
:102F1000679520C082FF07C06091050185E0689F2A
:102F2000B001112417C090910D029923D1F0609146
:102F30000401961788F72091050185E0289F9001EC
:102F40001124929FA001939F500D112470E0CA019B
:102F50000E9499216038710540F46115710539F0BE
:102F600002C065E070E0862F08958FE7089581E044
:102F7000089580910C0280FF08C06091030170E009
:102F8000759567957595679521C081FF06C060911D
:102F9000030170E07595679519C082FF04C06091C8
:102FA000030170E010C090910D029923C1F060916F
:102FB00002019617A0F780910301899FC001112497
:102FC00070E00E9499216038710528F4611571053F
:102FD00021F0862F08958FE7089581E0089561E03C
:102FE00070E0F4CF803F21F40E947017819504C0F7
:102FF000813F29F40E947017809311020895823F47
:1030000021F40E947017819504C0833F29F40E9427
:103010007017809310020895893F19F40E94B91720
:1030200005C08A3F31F40E94B9178195809312023E
:1030300008958B3F21F40E94B917819504C08C3FFD
:1030400029F40E94B917809313020895843F21F454
:1030500080910F02816017C0853F21F480910F029B
:10306000826011C0863F21F480910F0284600BC002
:10307000873F21F480910F02886005C0883F31F4BA
:1030800080910F02806180930F0208958D3F21F49B
:1030900080910C0281600BC08E3F21F480910C0264
:1030A000826005C08F3F29F480910C028460809378
:1030B0000C020895803F39F48091110287FF6CC0A3
:1030C0001092110269C0813F29F4809111021816F3
:1030D000BCF362C090911002823F29F497FF5CC05C
:1030E0001092100259C0833F19F41916CCF354C042
:1030F000893F41F48091120218160CF04DC01092D5
:1031000012024AC08A3F29F48091120287FF44C00C
:10311000F6CF8B3F39F48091130287FF3DC01092A8
:1031200013023AC08C3F29F4809113021816BCF3A5
:1031300033C0843F21F480910F028E7F17C0853FFA
:1031400021F480910F028D7F11C0863F21F4809180
:103150000F028B7F0BC0873F21F480910F02877F86
:1031600005C0883F31F480910F028F7E80930F025B
:1031700013C08D3F21F480910C028E7F0BC08E3FD7
:1031800021F480910C028D7F05C08F3F29F480913E
:103190000C028B7F80930C028091100281110EC073
:1031A0008091110281110AC080911202811106C022
:1031B00080911302811102C010920D0208958EE0D9
:1031C00092E00E942F080E94831590930B02809337
:1031D0000A0208951F93CF93DF9380910A02909182
:1031E0000B020E948F15AC0190910D02992321F0E2
:1031F0002091060130E006C0209107018AE0289F57
:10320000900111244217530708F47BC080911002EB
:10321000C0911102D091120210911302811107C0C6
:10322000C1116BC0D11169C0111167C06AC09F3F45
:1032300019F09F5F90930D02181624F40E947017E6
:10324000809310028091100287FF05C00E947017C2
:103250008195809310021C1624F40E9470178093AD
:1032600011028091110287FF05C00E94701781959D
:1032700080931102309110023323E1F0209111026A
:103280002223C1F045EB3403C0011124892F990F8B
:10329000990B009709F481E08093100235EB23032A
:1032A000C0011124892F990F990B009709F481E02F
:1032B000809311021D1624F40E94B9178093120204
:1032C0008091120287FF05C00E94B91781958093F3
:1032D0001202111624F40E94B917809313028091F0
:1032E000130287FF05C00E94B917819580931302CE
:1032F000DF91CF911F910C94DF189F3F09F099CF78
:10330000A1CFDF91CF911F910895EEE0F2E086E02A
:10331000DF011D928A95E9F710920D0210920C02BE
:1033200008950E94E813811102C00E9469140E944E
:103330000E1480933F02282F269530E0243031056B
:1033400024F08170866080933F0280913F0280FF6D
:1033500002C0869501C080E00C94690220913F0272
:10336000822F8695482F50E04330510544F48F5FFB
:10337000982F990F822F8170892B80933F02809123
:103380003F02816080933F020E94121480913F02AD
:1033900086950C94690280913F02982F969591F042
:1033A0009158990F8170892B80933F028E7F91E015
:1033B00009F490E080913F0290FB80F980933F02F6
:1033C0000E94121480913F0286950C9469028091AC
:1033D0003F0280FD11C0816080933F02813019F46B
:1033E00083E080933F0280913F020E9412148091FB
:1033F0003F0286950C946902089580913F0280FFF8
:1034000008C08E7F80933F020E94121480E00C94CB
:103410006902089580913F0280FD0C94FD190C947F
:10342000E71990913F02892F86958F5F8F77917072
:10343000843028F4880F892B80933F0202C0909338
:103440003F0280913F028E7F91E009F490E08091ED
:103450003F0290FB80F980933F020E9412148091FA
:103460003F0286950C946902843008F083E0880F4F
:1034700090913F029170892B80933F028E7F91E063
:1034800009F490E080913F0290FB80F980933F0225
:103490000E94121480913F0286950C9469028091DB
:1034A000340208950F931F93CF93DF9300D01F92A0
:1034B000CDB7DEB78C010E94BC1C823011F0843085
:1034C00021F584E089831B830A8382E08093E900ED
:1034D0008FEF9091E800815095FD06C095ED9A958B
:1034E000F1F700008111F5CF8091E80085FF0DC054
:1034F00040E050E063E070E0CE0101960E94D91CEC
:103500008091E8008E778093E8000F900F900F90E5
:10351000DF91CF911F910F910895CF93DF9300D04A
:103520001F92CDB7DEB720914402243031F523E05D
:103530002983805891099B838A8382E08093E900E4
:103540008FEF9091E800815095FD06C095ED9A951A
:10355000F1F700008111F5CF8091E80085FF0DC0E3
:1035600040E050E063E070E0CE0101960E94D91C7B
:103570008091E8008E778093E8000F900F900F9075
:10358000DF91CF910895CF93DF93EC010E94BC1C93
:10359000823011F08430F9F482E08093E9009FEFEB
:1035A0008091E800915085FD06C085ED8A95F1F780
:1035B00000009111F5CF8091E80085FF0CC040E03C
:1035C00050E066E070E0CE010E94D91C8091E800D6
:1035D0008E778093E800DF91CF910895CF93DF93AA
:1035E000EC010E94BC1C823011F08430D9F580912E
:1035F0001201882339F080913D0287FF03C060E209
:1036000082E002C068E081E08093E9008FEF909152
:10361000E800815095FD06C095ED9A95F1F7000000
:103620008111F5CF8091E80085FF1CC080911201C7
:10363000811105C040E050E068E070E003C070E038
:1036400040E050E0CE010E94D91C8091E8008E77C6
:103650008093E80080E2FE01A4E1B2E001900D92C7
:103660008A95E1F7DF91CF9108958091430281110E
:1036700009C00E946E1E0E94CB1E8091E2008460F1
:103680008093E200089510924302089508950895EA
:103690000C94471542E061EC81E00E94E81D42E293
:1036A00061EC82E00C94E81D80914602833009F4BD
:1036B0005CC030F4813071F0823009F495C0089517
:1036C0008A3009F481C08B3009F467C0893009F071
:1036D000A3C020C080914502813A09F09DC080912D
:1036E000E800877F8093E8008091490290914A0228
:1036F000892B21F460E284E192E003C060E080E085
:1037000090E070E00E94241D8091E8008B77809308
:10371000E800089580914502813209F07DC08091D2
:10372000490290914A02029708F076C08091E80021
:10373000877F8093E8008091E80082FD05C080913A
:1037400044028111F8CF68C080911201882329F0CA
:103750008091F1008B7F813021F48091F100809382
:1037600034028091E8008B7753C080914502813A02
:1037700009F052C08091490290914A02892B09F0C8
:103780004BC08091E800877F8093E8008091E8003B
:1037900080FFFCCF8091120136C0809145028132BA
:1037A000D9F58091490290914A02892BA9F580911F
:1037B000E800877F8093E8000E941D1E80914702E9
:1037C000809312010C94A70D80914502813221F55E
:1037D0008091E800877F8093E8000E941D1E809101
:1037E000480280933502089580914502813AA1F400
:1037F0008091E800877F8093E8008091E80080FF57
:10380000FCCF809135028093F1008091E8008E77A3
:103810008093E8000C941D1E089584B7877F84BFB1
:103820000FB6F894A895809160008861809360003D
:10383000109260000FBE80E88093610010926100DA
:103840000E9471080E946E1E0E94CB1E8091E200B1
:1038500084608093E20078940E945A210E94770845
:1038600088E091E00E94040880914402853069F468
:103870000E94FB14809142028823B1F30E9430150C
:10388000882391F30E94C31CEFCF0E947F08ECCFE6
:103890000C944A1C292F332723303105C9F064F4D6
:1038A0002130310581F02230310509F04CC08BE325
:1038B00090E022EE32E04BC02132310521F122327C
:1038C000310589F140C082E190E02DE133E03FC055
:1038D00099278130910571F02CF4892BA1F5EEED3B
:1038E000F2E00DC08230910541F0039761F5E2EB03
:1038F000F2E005C0ECECF2E002C0E8EBF2E084910B
:1039000090E09F0124C06115710541F0613071059F
:10391000D1F489E090E02DE033E019C089E090E037
:1039200024EF32E014C06115710541F0613071057A
:1039300051F480EC90E02FE233E009C080E490E0A5
:103940002FEE33E004C080E090E020E030E0FA01A8
:103950003183208308950895CF93C82F0E94AB1C14
:10396000C0933602CF91089580914402843011F0C3
:1039700081E0089582E0089580913602811102C0AD
:103980000C94B41C089580E189BD82E189BD09B41D
:1039900000FEFDCF8091D8008F7D8093D80080916C
:1039A000E00082608093E0008091E00081FDFCCF28
:1039B0000895CF92DF92EF92FF920F931F93CF93D0
:1039C000DF93EC018B016A010E943C1E811133C020
:1039D000C114D10439F0F60180819181081B190BC3
:1039E000C80FD91FE12CF12C0115110519F1809197
:1039F000E80085FD16C08091E8008E778093E8008E
:103A0000C114D10449F0F60180819181E80EF91EBC
:103A1000F182E08285E00FC00E943C1E882321F3E2
:103A20000AC089918093F10001501109FFEFEF1A4C
:103A3000FF0ADACF80E0DF91CF911F910F91FF90C5
:103A4000EF90DF90CF90089520914B0230914C027F
:103A50002617370748F06115710539F42091E80001
:103A60002E772093E80001C0B90140E0611571058F
:103A7000A9F120914402222309F443C0253009F41E
:103A800042C02091E80023FD40C02091E80022FDC3
:103A900032C02091E80020FFE9CF4091F30020914F
:103AA000F20030E0342BFC01CF016115710559F0B3
:103AB0002830310540F481918093F1006150710903
:103AC0002F5F3F4FF1CF41E02830310509F040E052
:103AD0002091E8002E772093E800C8CF4111C9CF8C
:103AE0000AC080914402882361F0853061F08091A2
:103AF000E80083FD0AC08091E80082FFF2CF80E0F9
:103B0000089582E0089583E0089581E0089520916A
:103B10004B0230914C022617370748F061157105AA
:103B200039F42091E8002E772093E80001C0B90114
:103B3000FC0120E06115710591F180914402882318
:103B400009F440C0853009F43FC08091E80083FD4E
:103B50003DC08091E80082FD2FC08091E80080FF89
:103B6000E9CF2091F3008091F20090E0922B611553
:103B7000710559F08830910540F424912093F100AB
:103B80003196615071090196F2CF21E0089709F052
:103B900020E08091E8008E778093E800CBCF211160
:103BA000CCCF0AC080914402882361F0853061F057
:103BB0008091E80083FD0AC08091E80082FFF2CF87
:103BC00080E0089582E0089583E0089581E00895FB
:103BD000982F973058F59093E900981739F0709125
:103BE000EC002091ED005091F00003C0242F762FBF
:103BF00050E021FF19C03091EB003E7F3093EB0085
:103C00003091ED003D7F3093ED003091EB0031605D
:103C10003093EB007093EC002093ED005093F00094
:103C20002091EE0027FF07C09F5FD3CF8F70809356
:103C3000E90081E0089580E008958091450287FFC2
:103C400011C08091E80082FD05C08091440281117D
:103C5000F8CF11C08091E8008B770BC080914402AF
:103C6000882349F08091E80080FFF8CF8091E80038
:103C70008E778093E80008952091E4003091E5006C
:103C800095E64091EC00842F817040FF22C0809126
:103C9000E80080FD1CC080914402882391F08530AB
:103CA00091F08091EB0085FD10C04091E4005091AF
:103CB000E5004217530729F39A01915011F784E068
:103CC000089582E0089583E0089581E0089580E0FA
:103CD00008954091E80042FFDECF08950E94DC1E67
:103CE0000E94E41EE0EEF0E0808181608083E8EDD8
:103CF000F0E080818F77808319BCA7EDB0E08C91D4
:103D00008E7F8C9380818F7E8083109243020895F2
:103D10000F931F93CF93DF930E94DC1E0E94E41E3B
:103D2000C8EDD0E088818F77888388818068888318
:103D300088818F7D888319BC1092440210924002C2
:103D4000109242021092410200EE10E0F8018081D0
:103D50008B7F808388818160888342E060E080E09F
:103D60000E94E81DE1EEF0E080818E7F8083E2EE2C
:103D7000F0E0808181608083808188608083F801A9
:103D800080818E7F8083888180618883DF91CF915D
:103D90001F910F910895E8EDF0E080818F7E808380
:103DA000E7EDF0E080818160808384E082BF81E084
:103DB000809343020C94881EE8EDF0E080818E7FB2
:103DC00080831092E20008951092DA001092E100D0
:103DD00008951F920F920FB60F9211242F933F93C5
:103DE0004F935F936F937F938F939F93AF93BF9303
:103DF000EF93FF938091E10082FF0BC08091E2007E
:103E000082FF07C08091E1008B7F8093E1000E94D8
:103E100059218091DA0080FF1FC08091D80080FF77
:103E20001BC08091DA008E7F8093DA008091D900E8
:103E300080FF0DC080E189BD82E189BD09B400FE2B
:103E4000FDCF81E0809344020E94351B05C019BC60
:103E5000109244020E94431B8091E10080FF19C030
:103E60008091E20080FF15C08091E2008E7F8093F8
:103E7000E2008091E20080618093E2008091D800AE
:103E800080628093D80019BC85E0809344020E9430
:103E9000471B8091E10084FF30C08091E20084FFE5
:103EA0002CC080E189BD82E189BD09B400FEFDCF4F
:103EB0008091D8008F7D8093D8008091E1008F7E23
:103EC0008093E1008091E2008F7E8093E2008091F8
:103ED000E20081608093E20080914002882311F02B
:103EE00084E007C08091E30087FD02C081E001C04B
:103EF00083E0809344020E94481B8091E10083FF8D
:103F000029C08091E20083FF25C08091E100877F76
:103F10008093E10082E080934402109240028091FD
:103F2000E1008E7F8093E1008091E2008E7F80939C
:103F3000E2008091E20080618093E20042E060E074
:103F400080E00E94E81D8091F00088608093F0007E
:103F50000E94461BFF91EF91BF91AF919F918F916E
:103F60007F916F915F914F913F912F910F900FBE75
:103F70000F901F9018951F920F920FB60F92112459
:103F80002F933F934F935F936F937F938F939F9361
:103F9000AF93BF93CF93DF93EF93FF93C091E9006B
:103FA000CF708091EC00D82FD17080FDD0E81092B6
:103FB000E9008091F000877F8093F00078940E9460
:103FC000FF1F1092E9008091F00088608093F0005C
:103FD000CD2BCF70C093E900FF91EF91DF91CF918E
:103FE000BF91AF919F918F917F916F915F914F9111
:103FF0003F912F910F900FBE0F901F9018951F9318
:10400000CF93DF93CDB7DEB7AA970FB6F894DEBF94
:104010000FBECDBFE5E4F2E088E08E0F9091F10095
:1040200091938E13FBCF0E94541B8091E80083FF75
:1040300028C18091450290914602492F50E04A30B4
:10404000510508F01EC1FA01E556FF4F0C94CF212F
:10405000803821F0823809F014C108C080914102F3
:1040600090914202992389F082600FC080914902A9
:104070008F70873008F005C18093E9008091EB00D4
:1040800085FB882780F91092E9009091E800977FDE
:104090009093E8008093F1001092F100D0C0282F97
:1040A0002D7F09F0EEC0882319F0823061F0E9C05D
:1040B00080914702813009F0E4C0933009F080E03C
:1040C000809342022EC08091470281112AC08091C4
:1040D00049028F702FEF280F263008F0D2C080934E
:1040E000E9002091EB0020FF1CC0933021F4809167
:1040F000EB00806214C09091EB0090619093EB0014
:1041000021E030E0A90102C0440F551F8A95E2F773
:104110004093EA001092EA008091EB00886080935F
:10412000EB001092E9008091E800877F8093E8001F
:104130000E941D1EA6C08111A4C0109147021F77C6
:104140008091E3008078812B8093E3008091E800E8
:10415000877F8093E8000E941D1E8091E80080FF09
:10416000FCCF8091E30080688093E300111102C0CE
:1041700082E001C083E08093440283C08058823093
:1041800008F07FC080914702909148028C3D53E037
:10419000950779F583E08A838AE289834FB7F8949B
:1041A000DE01139620E03EE051E2E32FF0E0509371
:1041B0005700E49120FF03C0E295EF703F5FEF707E
:1041C0008E2F90E0EA3010F0C79601C0C0968D9314
:1041D0009D932F5F243149F74FBF8091E800877F7F
:1041E0008093E8006AE270E0CE0101960E94241DEF
:1041F00015C06091490270914A02AE014F5F5F4F56
:104200000E94481CBC01892BE1F19091E800977F46
:104210009093E80089819A810E94871D8091E8002F
:104220008B778093E8002DC0803859F58091E800A5
:10423000877F8093E800809140028093F100809115
:10424000E8008E7773CF81111CC0909147029230A5
:10425000C0F48091E800877F8093E800909340024B
:104260000E941D1E80914002811106C08091E300D2
:1042700087FD02C081E001C084E0809344020E9477
:104280004A1B8091E80083FF0AC08091E800877F85
:104290008093E8008091EB0080628093EB00AA9607
:1042A0000FB6F894DEBF0FBECDBFDF91CF911F9147
:1042B00008950895CF93809144028823A1F0C0917E
:1042C000E900CF709091EC00892F817090FD80E81B
:1042D000C82B1092E9008091E80083FD0E94FF1F27
:1042E000CF70C093E900CF910895DB018F939F9326
:1042F0000E94E421BF91AF91A29F800D911DA39FC9
:10430000900DB29F900D11240895AA1BBB1B51E183
:1043100007C0AA1FBB1FA617B70710F0A61BB70B35
:10432000881F991F5A95A9F780959095BC01CD01DA
:10433000089597FB072E16F4009407D077FD09D057
:104340000E94852107FC05D03EF4909581959F4FF2
:104350000895709561957F4F0895A1E21A2EAA1BCA
:10436000BB1BFD010DC0AA1FBB1FEE1FFF1FA21725
:10437000B307E407F50720F0A21BB30BE40BF50B22
:10438000661F771F881F991F1A9469F760957095AB
:10439000809590959B01AC01BD01CF010895EE0F72
:1043A000FF1F0590F491E02D0994A29FB001B39FE7
:1043B000C001A39F700D811D1124911DB29F700D2E
:1043C000811D1124911D08950E94D521A59F900D56
:1043D000B49F900DA49F800D911D11240895F9990B
:1043E000FECF92BD81BDF89A992780B50895A8E1C6
:1043F000B0E042E050E00C942322262FF999FECF42
:1044000092BD81BDF89A019700B4021639F01FBA27
:1044100020BD0FB6F894FA9AF99A0FBE0895039644
:10442000272F0E94FE210E94FD21252F0E94FE21A0
:10443000242F0C94FE210196272F0E94FE210C941C
:10444000FD21DC01CB01FC01F999FECF06C0F2BDD4
:10445000E1BDF89A319600B40D9241505040B8F742
:064460000895F894FFCF5F
:10446600E5012808140A321E4F1AEE1AC31A8D1ACD
:10447600521A01939291903733C6F0F1F4F5F6F79C
:084486006766363497949596A1
:00000001FF
